S02700004F6E2D64656D616E642054726166666963206C6967687420636F6E74726F6C2E7372656372
S11300000C942A000C9442030C943C000C943C0085
S11300100C943C000C943C000C943C000C943C006C
S11300200C943C000C943C000C943C000C943C005C
S11300300C943C000C943C000C943C000C943C004C
S11300400C943C000C943C000C943C000C943C003C
S11300500C943C0011241FBECFE5D8E0DEBFCDBF19
S113006020E0A0E6B0E001C01D92A636B207E1F799
S11300700E94C9040C94D0040C94000065E081E44F
S11300800E94810360E081E40E948103089565E099
S113009081E40E94880360E081E40E94880308955B
S11300A063E081E40E94810362E081E40E948103B1
S11300B0089563E081E40E94880362E081E40E9481
S11300C08803089564E081E40E94810361E081E48F
S11300D00E948103089564E081E40E94880361E042
S11300E081E40E948803089591E02091600030919A
S11300F061002130310509F090E081E02091620037
S1130100309163002130310509F080E0892309F43E
S11301106AC0109261001092600010926300109205
S11301206200109265001092640015C00E94620083
S11301308AEF90E00E9494030E946B008AEF90E0A3
S11301400E949403809164009091650001969093BD
S113015065008093640080916400909165000A9723
S11301602CF30E94500010926500109264000DC0A0
S113017084EF91E00E949403809164009091650063
S1130180019690936500809364008091640090913F
S113019065000A976CF30E94590010926500109252
S11301A0640015C00E9462008AEF90E00E949403EC
S11301B00E946B008AEF90E00E9494038091640097
S11301C090916500019690936500809364008091FE
S11301D06400909165000A972CF38BE090E0909373
S11301E065008093640091E020916000309161008B
S11301F02230310509F090E081E0209162003091D5
S113020063002230310509F080E0892309F4A6C097
S113021010926100109260001092630010926200CC
S1130220109265001092640015C00E9462008AEF6B
S113023090E00E9494030E946B008AEF90E00E9479
S113024094038091640090916500019690936500F9
S11302508093640080916400909165000A972CF368
S11302600E94500010926500109264000DC084EF4B
S113027091E00E949403809164009091650001963E
S11302809093650080936400809164009091650070
S11302900A976CF30E945900109265001092640052
S11302A015C00E9462008AEF90E00E9494030E94AD
S11302B06B008AEF90E00E94940380916400909117
S11302C065000196909365008093640080916400BA
S11302D0909165000A972CF30E943E0010926500ED
S11302E0109264000DC084EF91E00E949403809109
S11302F0640090916500019690936500809364007A
S113030080916400909165000A976CF30E94470005
S1130310109265001092640015C00E9462008AEF7A
S113032090E00E9494030E946B008AEF90E00E9488
S11303309403809164009091650001969093650008
S11303408093640080916400909165000A972CF377
S11303508BE090E0909365008093640091E020919D
S11303606000309161002330310509F090E081E0B4
S113037020916200309163002330310509F080E060
S1130380892361F110926100109260001092630061
S1130390109262000E9459000E9450001092650061
S11303A0109264000DC084EF91E00E949403809148
S11303B064009091650001969093650080936400B9
S11303C080916400909165000A976CF30E94590033
S11303D08BE090E0909365008093640091E020911D
S11303E06000309161002430310509F090E081E033
S11303F020916200309163002430310509F080E0DF
S1130400892309F488C01092610010926000109250
S11304106300109262000E944700109265001092DF
S1130420640015C00E9462008AEF90E00E94940369
S11304300E946B008AEF90E00E9494038091640014
S1130440909165000196909365008093640080917B
S11304506400909165000A972CF30E94500010925A
S11304606500109264000DC084EF91E00E94940333
S1130470809164009091650001969093650080934B
S1130480640080916400909165000A976CF30E9467
S11304905900109265001092640015C00E94620019
S11304A08AEF90E00E9494030E946B008AEF90E030
S11304B00E9494038091640090916500019690934A
S11304C065008093640080916400909165000A97B0
S11304D02CF30E943E0010926500109264000DC03F
S11304E084EF91E00E9494038091640090916500F0
S11304F001969093650080936400809164009091CC
S113050065000A976CF30E9447008BE090E090939B
S1130510650080936400089560E081E40E947A039A
S113052061E081E40E947A0362E081E40E947A033C
S113053063E081E40E947A0364E081E40E947A0328
S113054065E081E40E947A030E948F030E94BE0446
S1130550089584E090E090936100809360000E948D
S11305603E0010926500109264000FC084EF91E089
S11305700E9494030E94740080916400909165002D
S1130580019690936500809364008091640090913B
S113059065000A975CF30E94470082E090E0909324
S11305A0610080936000109265001092640017C08F
S11305B00E9462008AEF90E00E9494030E947400FB
S11305C00E946B008AEF90E00E9494038091640083
S11305D090916500019690936500809364008091EA
S11305E06400909165000A971CF383E090E0909377
S11305F06100809360000E94500010926500109288
S113060064000FC084EF91E00E9494030E94740080
S113061080916400909165000196909365008093A9
S1130620640080916400909165000A975CF30E94D5
S1130630590081E090E090936100809360001092F3
S113064065001092640017C00E9462008AEF90E077
S11306500E9494030E9474000E946B008AEF90E051
S11306600E94940380916400909165000196909398
S113067065008093640080916400909165000A97FE
S11306801CF367CF1F920F920FB60F9211248F9312
S11306909F9380916000909161008130910539F4BD
S11306A081E090E090936300809362001CC08230EC
S11306B0910539F482E090E09093630080936200A6
S11306C012C08330910539F483E090E09093630085
S11306D08093620008C0049731F484E090E0909322
S11306E06300809362009F918F910F900FBE0F90D3
S11306F01F901895982F862F41E0692F0E94A80318
S11307000895982F862F41E0692F0E94330408959D
S1130710982F862F40E0692F0E943304089513BE5A
S113072083B7826083BF08959C010EC080E882BFB6
S113073093B7926093BF08B600FEFDCF98B791605F
S113074098BF13BE215031092115310579F7089559
S1130750623459F118F4613441F00895633409F4B2
S113076044C0643409F460C0089541110EC04AB312
S113077021E030E0B90102C0660F771F8A95E2F7E5
S1130780CB01809584238ABB0895413009F06AC067
S11307904AB321E030E0B90102C0660F771F8A95A1
S11307A0E2F7CB01842B8ABB089541110EC047B3F5
S11307B021E030E0B90102C0660F771F8A95E2F7A5
S11307C0CB018095842387BB0895413009F04AC04A
S11307D047B321E030E0B90102C0660F771F8A9564
S11307E0E2F7CB01842B87BB089541110EC044B3BB
S11307F021E030E0B90102C0660F771F8A95E2F765
S1130800CB018095842384BB0895413059F544B3CA
S113081021E030E0B90102C0660F771F8A95E2F744
S1130820CB01842B84BB089541110EC041B321E058
S113083030E0B90102C0660F771F8A95E2F7CB0159
S11308408095842381BB0895413061F441B321E054
S113085030E0B90102C0660F771F8A95E2F7CB0139
S1130860842B81BB0895623459F118F4613441F04A
S11308700895633409F444C0643409F460C00895ED
S113088041110EC04BB321E030E0B90102C0660F44
S1130890771F8A95E2F7CB01809584238BBB08955B
S11308A0413009F06AC04BB321E030E0B90102C025
S11308B0660F771F8A95E2F7CB01842B8BBB0895D3
S11308C041110EC048B321E030E0B90102C0660F07
S11308D0771F8A95E2F7CB018095842388BB08951E
S11308E0413009F04AC048B321E030E0B90102C008
S11308F0660F771F8A95E2F7CB01842B88BB089596
S113090041110EC045B321E030E0B90102C0660FC9
S1130910771F8A95E2F7CB018095842385BB0895E0
S1130920413059F545B321E030E0B90102C0660F0A
S1130930771F8A95E2F7CB01842B85BB089541117B
S11309400EC042B321E030E0B90102C0660F771F48
S11309508A95E2F7CB018095842382BB08954130C8
S113096061F442B321E030E0B90102C0660F771FA1
S11309708A95E2F7CB01842B82BB089581B384600E
S113098081BB789485B7836085BF8BB780648BBF48
S113099008950E948C020E94A90280E090E00895CC
S10709A0F894FFCFF5
S9030000FC
