S0140000746573742070726F6A6563742E7372656339
S11300000C942A000C94A9010C943C000C943C0020
S11300100C943C000C943C000C943C000C943C006C
S11300200C943C000C943C000C943C000C943C005C
S11300300C943C000C943C000C943C000C943C004C
S11300400C943C000C943C000C943C000C943C003C
S11300500C943C0011241FBECFE5D8E0DEBFCDBF19
S113006020E0A0E6B0E001C01D92A636B207E1F799
S11300700E9426030C942D030C94000065E081E497
S11300800E94180360E081E40E9418031092650046
S1130090109264000DC088EE93E00E94DC01809110
S11300A064009091650001969093650080936400CC
S11300B0809164009091650005976CF365E081E49C
S11300C00E941F0360E081E40E941F03089582E000
S11300D090E090936100809360001092650010920C
S11300E0640023C064E081E40E94180361E081E4B9
S11300F00E9418038AEF90E00E94DC010E949C0099
S113010064E081E40E941F0361E081E40E941F0314
S11301108AEF90E00E94DC01809164009091650078
S1130120019690936500809364008091640090919F
S113013065000A97BCF2089591E020916000309127
S113014061002130310509F090E081E020916200E6
S1130150309163002130310509F080E08923A1F05A
S1130160109261001092600010926300109262007D
S11301700E944E010E941D010E944E0186E090E003
S1130180909365008093640091E020916000309129
S113019061002230310509F090E081E02091620095
S11301A0309163002230310509F080E08923C1F0E9
S11301B0109261001092600010926300109262002D
S11301C00E9467000E941D010E9467000E943E0079
S11301D00E94670086E090E090936500809364003D
S11301E091E020916000309161002330310509F0E5
S11301F090E081E02091620030916300233031056A
S113020009F080E08923C1F010926100109260002F
S1130210109263001092620063E081E40E941F0365
S113022062E081E40E941F030E941D0186E090E0C9
S11302309093650080936400089583E090E0909328
S113024061008093600063E081E40E94180362E02F
S113025081E40E94180310926500109264000FC09C
S113026088EE93E00E94DC010E949C00809164006F
S1130270909165000196909365008093640080914D
S113028064009091650005975CF363E081E40E944B
S11302901F0362E081E40E941F03089581E090E05F
S11302A09093610080936000109265001092640046
S11302B023C064E081E40E94180361E081E40E94A9
S11302C018038AEF90E00E94DC010E949C0064E025
S11302D081E40E941F0361E081E40E941F038AEF0E
S11302E090E00E94DC018091640090916500019689
S11302F09093650080936400809164009091650000
S11303000A97BCF2089560E081E40E94110361E061
S113031081E40E94110362E081E40E94110363E01E
S113032081E40E94110364E081E40E94110365E00A
S113033081E40E9411030E94D7010E9406030895DC
S11303400E943E000E9467000E941D010E944E010F
S1130350F7CF1F920F920FB60F9211248F939F9392
S113036080916000909161008130910539F481E0C1
S113037090E0909363008093620012C082309105F4
S113038039F482E090E0909363008093620008C0A7
S1130390039731F483E090E09093630080936200CC
S11303A09F918F910F900FBE0F901F90189513BEC1
S11303B083B7826083BF08959C010EC080E882BF2A
S11303C093B7926093BF08B600FEFDCF98B79160D3
S11303D098BF13BE215031092115310579F70895CD
S11303E0623459F118F4613441F00895633409F426
S11303F044C0643409F460C0089541110EC04AB386
S113040021E030E0B90102C0660F771F8A95E2F758
S1130410CB01809584238ABB0895413009F06AC0DA
S11304204AB321E030E0B90102C0660F771F8A9514
S1130430E2F7CB01842B8ABB089541110EC047B368
S113044021E030E0B90102C0660F771F8A95E2F718
S1130450CB018095842387BB0895413009F04AC0BD
S113046047B321E030E0B90102C0660F771F8A95D7
S1130470E2F7CB01842B87BB089541110EC044B32E
S113048021E030E0B90102C0660F771F8A95E2F7D8
S1130490CB018095842384BB0895413059F544B33E
S11304A021E030E0B90102C0660F771F8A95E2F7B8
S11304B0CB01842B84BB089541110EC041B321E0CC
S11304C030E0B90102C0660F771F8A95E2F7CB01CD
S11304D08095842381BB0895413061F441B321E0C8
S11304E030E0B90102C0660F771F8A95E2F7CB01AD
S11304F0842B81BB0895623459F118F4613441F0BE
S11305000895633409F444C0643409F460C0089560
S113051041110EC04BB321E030E0B90102C0660FB7
S1130520771F8A95E2F7CB01809584238BBB0895CE
S1130530413009F06AC04BB321E030E0B90102C098
S1130540660F771F8A95E2F7CB01842B8BBB089546
S113055041110EC048B321E030E0B90102C0660F7A
S1130560771F8A95E2F7CB018095842388BB089591
S1130570413009F04AC048B321E030E0B90102C07B
S1130580660F771F8A95E2F7CB01842B88BB089509
S113059041110EC045B321E030E0B90102C0660F3D
S11305A0771F8A95E2F7CB018095842385BB089554
S11305B0413059F545B321E030E0B90102C0660F7E
S11305C0771F8A95E2F7CB01842B85BB08954111EF
S11305D00EC042B321E030E0B90102C0660F771FBC
S11305E08A95E2F7CB018095842382BB089541303C
S11305F061F442B321E030E0B90102C0660F771F15
S11306008A95E2F7CB01842B82BB089581B3846081
S113061081BB789485B7836085BF8BB780648BBFBB
S11306200895982F862F41E0692F0E94F0010895C4
S1130630982F862F41E0692F0E947B020895982FFE
S1130640862F40E0692F0E947B0208950E94830157
S11106500E94A00180E090E00895F894FFCF8E
S9030000FC
